:100000000C942A000C94B7000C943C000C943C0017
:100010000C943C000C943C000C943C000C943C0070
:100020000C943C000C943C000C943C000C943C0060
:100030000C943C000C943C000C943C000C943C0050
:100040000C943C000C943C000C943C000C943C0040
:100050000C943C0011241FBECFE5D8E0DEBFCDBF1D
:1000600020E0A0E6B0E001C01D92A336B207E1F7A0
:100070000E9498020C94CD060C94000060E081E48C
:100080000E94D200811133C061E081E40E94D2005D
:1000900081112FC062E081E40E94D20081112BC047
:1000A00060E082E40E94D200811127C061E082E416
:1000B0000E94D200811123C062E082E40E94D2003B
:1000C00081111FC062E084E40E94CE0081111BC038
:1000D0000E941C04811119C00E940E04811117C0D6
:1000E00081E0809360001092620080E0089581E0DA
:1000F000089581E0089581E0089581E0089581E008
:10010000089581E0089581E0089581E0089581E0F7
:10011000089580916200813099F40E94E10182305B
:1001200059F018F4813031F0F4CF8330E1F08430AD
:1001300029F0EFCF81E0089582E0089583E00895EB
:100140000E941001823059F018F4813031F0E1CF73
:10015000833059F0843029F0DCCF81E0089582E0CB
:10016000089583E0089584E0089584E008951F923F
:100170000F920FB60F9211248F93809160008130FF
:1001800039F480916100813019F081E08093620040
:100190008F910F900FBE0F901F90189540E00E9416
:1001A000A902089541E00E94A902089540E00E943A
:1001B0003B0308950E94CD030895EF92FF920F93A1
:1001C0001F93CF93DF93182F062FE42EF22EC0E05B
:1001D000D0E01BC0602F812F0E94CD03882329F01F
:1001E000602F812F0E94CD0314C06F2D8E2D0E9491
:1001F000CD03882329F0602F812F0E94CD0309C0F1
:1002000084EF91E00E9427042196C230D10514F3B7
:1002100080E0DF91CF911F910F91FF90EF900895B3
:10022000CF93DF931092610060E081E40E94DA00D6
:10023000811199C081E08093600062E082E40E94B5
:10024000DA00811192C080916200813009F48FC080
:10025000C0E0D0E00CC084EF91E00E94270481113F
:1002600088C080916200813009F485C02196CA302F
:10027000D1058CF380916200813009F47EC0C0E02A
:10028000D0E00EC021E042E461E081E40E94DD00A4
:10029000811175C080916200813009F472C021968D
:1002A000C530D1057CF380916200813009F46BC0C8
:1002B00060E081E40E94DA00811167C01092600062
:1002C00062E082E40E94DA00811161C062E081E4B0
:1002D0000E94DA0081115DC060E082E40E94DA00D1
:1002E000811159C080916200813009F456C0C0E08C
:1002F000D0E00CC084EF91E00E94270481114FC030
:1003000080916200813009F44CC02196CA30D10539
:100310008CF380916200813009F445C0C0E0D0E0E8
:100320000DC021E042E461E081E40E94DD00811122
:100330003CC0809162008130D1F12196C530D10559
:1003400084F3809162008130A1F162E081E40E9437
:10035000DA00811130C060E082E40E94DA00882374
:1003600061F181E02BC081E029C081E027C085E0F8
:1003700025C083E023C085E021C085E01FC081E067
:100380001DC085E01BC085E019C081E017C081E079
:1003900015C081E013C081E011C085E00FC083E08B
:1003A0000DC085E00BC085E009C081E007C085E095
:1003B00005C085E003C081E001C080E0DF91CF91FE
:1003C0000895CF93DF9360E081E40E94D60081110D
:1003D00089C061E081E40E94D600811185C062E09D
:1003E00081E40E94D600811181C060E082E40E9415
:1003F000D60081117DC061E082E40E94D6008111A7
:1004000079C062E082E40E94D600811175C010922A
:10041000620080916000813009F070C080936100BB
:1004200060E081E40E94DA0081116AC062E082E447
:100430000E94DA00811166C0C0E0D0E009C021E06E
:1004400042E461E081E40E94DD0081115DC02196FB
:10045000C530D105A4F360E081E40E94DA00811187
:1004600055C01092600062E081E40E94DA008111C0
:100470004FC060E082E40E94DA0081114BC062E06C
:1004800082E40E94DA00811147C0C0E0D0E007C0DA
:1004900084EF91E00E942704811140C02196CA3068
:1004A000D105B4F3C0E0D0E009C021E042E461E04E
:1004B00081E40E94DD00811133C02196C530D10551
:1004C000A4F362E081E40E94DA0081112BC060E0B5
:1004D00082E40E94DA00811127C081E080936000ED
:1004E00080E023C081E021C081E01FC081E01DC009
:1004F00081E01BC081E019C081E017C080E015C019
:1005000081E013C081E011C081E00FC081E00DC027
:1005100081E00BC081E009C081E007C083E005C035
:1005200081E003C081E001C081E0DF91CF910895B7
:100530000E943E00811107C00E948900882331F08B
:1005400081E090E0089581E090E0089580E090E0FF
:100550000895683008F083C0823449F118F481347A
:1005600041F07FC0833409F440C0843409F45AC098
:1005700078C041110DC02AB381E090E002C0880F1D
:10058000991F6A95E2F7809582238ABB80E00895DF
:10059000413009F068C02AB381E090E002C0880FC2
:1005A000991F6A95E2F7822B8ABB80E0089541117A
:1005B0000DC027B381E090E002C0880F991F6A95B3
:1005C000E2F78095822387BB80E00895413009F0EF
:1005D0004CC027B381E090E002C0880F991F6A9554
:1005E000E2F7822B87BB80E0089541110DC024B350
:1005F00081E090E002C0880F991F6A95E2F780952C
:10060000822384BB80E00895413089F524B381E0E2
:1006100090E002C0880F991F6A95E2F7822B84BB95
:1006200080E0089541110DC021B381E090E002C047
:10063000880F991F6A95E2F78095822381BB80E03D
:1006400008954130B1F421B381E090E002C0880FF9
:10065000991F6A95E2F7822B81BB80E0089582E0C2
:10066000089581E0089583E0089583E0089583E08C
:10067000089583E00895683008F083C0823449F11A
:1006800018F4813441F07FC0833409F440C08434CD
:1006900009F45AC078C041110DC02BB381E090E03D
:1006A00002C0880F991F6A95E2F7809582238BBB61
:1006B00080E00895413009F068C02BB381E090E0FC
:1006C00002C0880F991F6A95E2F7822B8BBB80E0EE
:1006D000089541110DC028B381E090E002C0880F59
:1006E000991F6A95E2F78095822388BB80E0089580
:1006F000413009F04CC028B381E090E002C0880F7F
:10070000991F6A95E2F7822B88BB80E0089541111A
:100710000DC025B381E090E002C0880F991F6A9553
:10072000E2F78095822385BB80E00895413089F50A
:1007300025B381E090E002C0880F991F6A95E2F727
:10074000822B85BB80E0089541110DC022B381E06A
:1007500090E002C0880F991F6A95E2F78095822386
:1007600082BB80E008954130B1F422B381E090E093
:1007700002C0880F991F6A95E2F7822B82BB80E046
:10078000089582E0089581E0089584E0089584E06A
:10079000089584E0089584E008956830D8F582349F
:1007A000A9F018F4813431F037C08334D9F084349F
:1007B00029F132C02BB381E090E002C0880F991F6D
:1007C0006A95E2F782278BBB80E0089528B381E029
:1007D00090E002C0880F991F6A95E2F7822788BBD4
:1007E00080E0089525B381E090E002C0880F991F52
:1007F0006A95E2F7822785BB80E0089522B381E005
:1008000090E002C0880F991F6A95E2F7822782BBA9
:1008100080E0089582E0089581E0089585B78E7F95
:1008200085BF85B7826085BF8BB780648BBF8FB76C
:1008300080688FBF80E0089583B78E7F83BF83B7C2
:100840008D7F83BF83B78B7F83BF80E008958F92B6
:100850009F92AF92BF92CF92DF92EF92FF92CF938F
:10086000DF93813127E2920708F06EC0EC01BC01F2
:1008700080E090E00E94DA056B017C012FE632E116
:1008800043E852E40E94340588239CF4A7019601B2
:100890006FE672E183E892E40E94B0042FE632E151
:1008A00043E85EE30E9439050E94AB05C1E0D0E059
:1008B00035C0C134D10579F12FE632E143E852E485
:1008C000C701B6010E9439050E941D050E94AB05B3
:1008D0004B015C01EB012FE632E143E85EE3C70127
:1008E000B6010E9439056B017C01B40180E090E003
:1008F0000E94DA059B01AC01C701B6010E943905CF
:100900009B01AC0160E070E080E893E40E94B004D9
:100910000E94AB0503C060E0C1E0D0E062BF83B7D6
:10092000846083BF20E030E008C008B600FEFDCF41
:1009300088B7816088BF2F5F3F4F2C173D07A8F312
:100940000E941C0480E001C081E0DF91CF91FF9004
:10095000EF90DF90CF90BF90AF909F908F900895D1
:100960005058BB27AA270E94C8040C947B060E94FB
:100970006D0638F00E94740620F039F49F3F19F498
:1009800026F40C946A060EF4E095E7FB0C943B0603
:10099000E92F0E948C0658F3BA1762077307840781
:1009A000950720F079F4A6F50C94C6060EF4E095B0
:1009B0000B2EBA2FA02D0B01B90190010C01CA0119
:1009C000A0011124FF27591B99F0593F50F4503EC4
:1009D00068F11A16F040A22F232F342F4427585FB6
:1009E000F3CF469537952795A795F0405395C9F7CE
:1009F0007EF41F16BA0B620B730B840BBAF0915086
:100A0000A1F0FF0FBB1F661F771F881FC2F70EC024
:100A1000BA0F621F731F841F48F4879577956795F7
:100A2000B795F7959E3F08F0B0CF9395880F08F0E3
:100A30009927EE0F9795879508950E94AE0690F03E
:100A40009F3748F4911116F40C94C70660E070E0EB
:100A500080E89FE3089526F01B16611D711D811D1E
:100A60000C9441060C945C060E94170608F481E081
:100A700008950E944D050C947B060E94740658F060
:100A80000E946D0640F029F45F3F29F00C943B066C
:100A900051110C94C7060C946A060E948C0668F3E8
:100AA0009923B1F3552391F3951B550BBB27AA2727
:100AB00062177307840738F09F5F5F4F220F331F61
:100AC000441FAA1FA9F335D00E2E3AF0E0E832D029
:100AD00091505040E695001CCAF72BD0FE2F29D02C
:100AE000660F771F881FBB1F261737074807AB07FE
:100AF000B0E809F0BB0B802DBF01FF2793585F4F73
:100B00003AF09E3F510578F00C943B060C94C706D2
:100B10005F3FE4F3983ED4F3869577956795B79554
:100B2000F7959F5FC9F7880F911D9695879597F95F
:100B30000895E1E0660F771F881FBB1F62177307D8
:100B40008407BA0720F0621B730B840BBA0BEE1FED
:100B500088F7E09508950E94940688F09F5798F0D2
:100B6000B92F9927B751B0F0E1F0660F771F881FB2
:100B7000991F1AF0BA95C9F714C0B13091F00E94CC
:100B8000C606B1E008950C94C606672F782F882713
:100B9000B85F39F0B93FCCF3869577956795B395F3
:100BA000D9F73EF490958095709561957F4F8F4F62
:100BB0009F4F0895E89409C097FB3EF49095809567
:100BC000709561957F4F8F4F9F4F9923A9F0F92F13
:100BD00096E9BB279395F695879577956795B79591
:100BE000F111F8CFFAF4BB0F11F460FF1BC06F5F77
:100BF0007F4F8F4F9F4F16C0882311F096E911C089
:100C0000772321F09EE8872F762F05C0662371F0A9
:100C100096E8862F70E060E02AF09A95660F771FBD
:100C2000881FDAF7880F9695879597F90895990F99
:100C30000008550FAA0BE0E8FEEF16161706E807A6
:100C4000F907C0F012161306E407F50798F0621BC7
:100C5000730B840B950B39F40A2661F0232B242B9C
:100C6000252B21F408950A2609F4A140A6958FEFBB
:100C7000811D811D089597F99F6780E870E060E00D
:100C80000895882371F4772321F09850872B762FCD
:100C900007C0662311F499270DC09051862B70E090
:100CA00060E02AF09A95660F771F881FDAF7880FA1
:100CB0009695879597F908959F3F31F0915020F4CC
:100CC000879577956795B795880F911D9695879528
:100CD00097F908959FEF80EC089500240A94161662
:100CE000170618060906089500240A94121613061A
:100CF000140605060895092E0394000C11F48823A8
:100D000052F0BB0F40F4BF2B11F460FF04C06F5FC3
:100D10007F4F8F4F9F4F089557FD9058440F551F99
:100D200059F05F3F71F04795880F97FB991F61F06D
:100D30009F3F79F087950895121613061406551FE4
:100D4000F2CF4695F1DF08C0161617061806991F50
:100D5000F1CF869571056105089408950E94940667
:100D6000A0F0BEE7B91788F4BB279F3860F41616C9
:100D7000B11D672F782F8827985FF7CF86957795D5
:100D80006795B11D93959639C8F30895E894BB27EC
:0E0D900066277727CB0197F90895F894FFCFD7
:00000001FF
